{
  "_format": "hh3-artifact-1",
  "contractName": "TierList",
  "sourceName": "contracts/TierList.sol",
  "abi": [
    {
      "inputs": [],
      "stateMutability": "nonpayable",
      "type": "constructor"
    },
    {
      "anonymous": false,
      "inputs": [
        {
          "indexed": true,
          "internalType": "uint256",
          "name": "tierListId",
          "type": "uint256"
        },
        {
          "indexed": true,
          "internalType": "uint256",
          "name": "itemId",
          "type": "uint256"
        },
        {
          "indexed": false,
          "internalType": "string",
          "name": "name",
          "type": "string"
        }
      ],
      "name": "ItemRemoved",
      "type": "event"
    },
    {
      "anonymous": false,
      "inputs": [
        {
          "indexed": true,
          "internalType": "uint256",
          "name": "tierListId",
          "type": "uint256"
        },
        {
          "indexed": false,
          "internalType": "uint256[]",
          "name": "itemIds",
          "type": "uint256[]"
        },
        {
          "indexed": false,
          "internalType": "string[]",
          "name": "names",
          "type": "string[]"
        }
      ],
      "name": "ItemsAdded",
      "type": "event"
    },
    {
      "anonymous": false,
      "inputs": [
        {
          "indexed": true,
          "internalType": "address",
          "name": "voter",
          "type": "address"
        },
        {
          "indexed": true,
          "internalType": "uint256",
          "name": "tierListId",
          "type": "uint256"
        },
        {
          "indexed": false,
          "internalType": "uint256",
          "name": "submissionIndex",
          "type": "uint256"
        }
      ],
      "name": "RankingSubmitted",
      "type": "event"
    },
    {
      "anonymous": false,
      "inputs": [
        {
          "indexed": true,
          "internalType": "uint256",
          "name": "tierListId",
          "type": "uint256"
        },
        {
          "indexed": false,
          "internalType": "string",
          "name": "name",
          "type": "string"
        },
        {
          "indexed": false,
          "internalType": "string",
          "name": "description",
          "type": "string"
        },
        {
          "indexed": false,
          "internalType": "uint256",
          "name": "numActiveItems",
          "type": "uint256"
        }
      ],
      "name": "TierListCreated",
      "type": "event"
    },
    {
      "anonymous": false,
      "inputs": [
        {
          "indexed": true,
          "internalType": "uint256",
          "name": "tierListId",
          "type": "uint256"
        },
        {
          "indexed": false,
          "internalType": "bool",
          "name": "active",
          "type": "bool"
        }
      ],
      "name": "TierListStatusChanged",
      "type": "event"
    },
    {
      "inputs": [],
      "name": "NUM_TIERS",
      "outputs": [
        {
          "internalType": "uint256",
          "name": "",
          "type": "uint256"
        }
      ],
      "stateMutability": "view",
      "type": "function"
    },
    {
      "inputs": [
        {
          "internalType": "uint256",
          "name": "tlId",
          "type": "uint256"
        },
        {
          "internalType": "string[]",
          "name": "names",
          "type": "string[]"
        }
      ],
      "name": "addItem",
      "outputs": [],
      "stateMutability": "nonpayable",
      "type": "function"
    },
    {
      "inputs": [
        {
          "internalType": "string",
          "name": "name",
          "type": "string"
        },
        {
          "internalType": "string",
          "name": "description",
          "type": "string"
        },
        {
          "internalType": "string[]",
          "name": "initialItemNames",
          "type": "string[]"
        }
      ],
      "name": "createTierList",
      "outputs": [],
      "stateMutability": "nonpayable",
      "type": "function"
    },
    {
      "inputs": [
        {
          "internalType": "uint256",
          "name": "tlId",
          "type": "uint256"
        }
      ],
      "name": "getGlobalVotes",
      "outputs": [
        {
          "internalType": "uint256[]",
          "name": "itemIds",
          "type": "uint256[]"
        },
        {
          "internalType": "uint256[][]",
          "name": "counts",
          "type": "uint256[][]"
        }
      ],
      "stateMutability": "view",
      "type": "function"
    },
    {
      "inputs": [
        {
          "internalType": "uint256",
          "name": "tlId",
          "type": "uint256"
        },
        {
          "internalType": "uint256",
          "name": "itemId",
          "type": "uint256"
        }
      ],
      "name": "getItemVoteCounts",
      "outputs": [
        {
          "internalType": "uint256[]",
          "name": "counts",
          "type": "uint256[]"
        }
      ],
      "stateMutability": "view",
      "type": "function"
    },
    {
      "inputs": [
        {
          "internalType": "uint256",
          "name": "tlId",
          "type": "uint256"
        },
        {
          "internalType": "uint256",
          "name": "limit",
          "type": "uint256"
        },
        {
          "internalType": "uint256",
          "name": "offset",
          "type": "uint256"
        }
      ],
      "name": "getLatestSubmissions",
      "outputs": [
        {
          "internalType": "address[]",
          "name": "accounts",
          "type": "address[]"
        }
      ],
      "stateMutability": "view",
      "type": "function"
    },
    {
      "inputs": [
        {
          "internalType": "uint256",
          "name": "tlId",
          "type": "uint256"
        }
      ],
      "name": "getSubmissionsNextIndex",
      "outputs": [
        {
          "internalType": "uint256",
          "name": "",
          "type": "uint256"
        }
      ],
      "stateMutability": "view",
      "type": "function"
    },
    {
      "inputs": [
        {
          "internalType": "uint256",
          "name": "tlId",
          "type": "uint256"
        }
      ],
      "name": "getTierList",
      "outputs": [
        {
          "internalType": "string",
          "name": "name",
          "type": "string"
        },
        {
          "internalType": "string",
          "name": "description",
          "type": "string"
        },
        {
          "internalType": "bool",
          "name": "active",
          "type": "bool"
        },
        {
          "internalType": "uint256",
          "name": "numActiveItems",
          "type": "uint256"
        }
      ],
      "stateMutability": "view",
      "type": "function"
    },
    {
      "inputs": [
        {
          "internalType": "uint256",
          "name": "tlId",
          "type": "uint256"
        }
      ],
      "name": "getTierListItems",
      "outputs": [
        {
          "internalType": "uint256[]",
          "name": "itemIds",
          "type": "uint256[]"
        },
        {
          "components": [
            {
              "internalType": "string",
              "name": "name",
              "type": "string"
            },
            {
              "internalType": "bool",
              "name": "active",
              "type": "bool"
            }
          ],
          "internalType": "struct TierList.ItemInfo[]",
          "name": "itemInfos",
          "type": "tuple[]"
        }
      ],
      "stateMutability": "view",
      "type": "function"
    },
    {
      "inputs": [
        {
          "internalType": "bool",
          "name": "includeInactive",
          "type": "bool"
        }
      ],
      "name": "getTierLists",
      "outputs": [
        {
          "components": [
            {
              "internalType": "uint256",
              "name": "id",
              "type": "uint256"
            },
            {
              "internalType": "string",
              "name": "name",
              "type": "string"
            },
            {
              "internalType": "string",
              "name": "description",
              "type": "string"
            },
            {
              "internalType": "bool",
              "name": "active",
              "type": "bool"
            },
            {
              "internalType": "uint256",
              "name": "numActiveItems",
              "type": "uint256"
            }
          ],
          "internalType": "struct TierList.TierListView[]",
          "name": "",
          "type": "tuple[]"
        }
      ],
      "stateMutability": "view",
      "type": "function"
    },
    {
      "inputs": [],
      "name": "getTotalTierLists",
      "outputs": [
        {
          "internalType": "uint256",
          "name": "",
          "type": "uint256"
        }
      ],
      "stateMutability": "view",
      "type": "function"
    },
    {
      "inputs": [
        {
          "internalType": "uint256",
          "name": "tlId",
          "type": "uint256"
        },
        {
          "internalType": "address",
          "name": "user",
          "type": "address"
        }
      ],
      "name": "getUserVotes",
      "outputs": [
        {
          "internalType": "uint256[][]",
          "name": "rankedItemIdsByTier",
          "type": "uint256[][]"
        }
      ],
      "stateMutability": "view",
      "type": "function"
    },
    {
      "inputs": [
        {
          "internalType": "uint256",
          "name": "",
          "type": "uint256"
        },
        {
          "internalType": "uint256",
          "name": "",
          "type": "uint256"
        }
      ],
      "name": "items",
      "outputs": [
        {
          "internalType": "string",
          "name": "name",
          "type": "string"
        },
        {
          "internalType": "bool",
          "name": "active",
          "type": "bool"
        }
      ],
      "stateMutability": "view",
      "type": "function"
    },
    {
      "inputs": [],
      "name": "owner",
      "outputs": [
        {
          "internalType": "address",
          "name": "",
          "type": "address"
        }
      ],
      "stateMutability": "view",
      "type": "function"
    },
    {
      "inputs": [
        {
          "internalType": "uint256",
          "name": "tlId",
          "type": "uint256"
        },
        {
          "internalType": "uint256",
          "name": "itemId",
          "type": "uint256"
        }
      ],
      "name": "removeItem",
      "outputs": [],
      "stateMutability": "nonpayable",
      "type": "function"
    },
    {
      "inputs": [
        {
          "internalType": "uint256",
          "name": "tlId",
          "type": "uint256"
        },
        {
          "internalType": "bool",
          "name": "active",
          "type": "bool"
        }
      ],
      "name": "setTierListActive",
      "outputs": [],
      "stateMutability": "nonpayable",
      "type": "function"
    },
    {
      "inputs": [
        {
          "internalType": "uint256",
          "name": "",
          "type": "uint256"
        }
      ],
      "name": "submissionsNextIndex",
      "outputs": [
        {
          "internalType": "uint256",
          "name": "",
          "type": "uint256"
        }
      ],
      "stateMutability": "view",
      "type": "function"
    },
    {
      "inputs": [
        {
          "internalType": "uint256",
          "name": "tlId",
          "type": "uint256"
        },
        {
          "internalType": "uint256[][]",
          "name": "rankedItemIdsByTier",
          "type": "uint256[][]"
        }
      ],
      "name": "submitRanking",
      "outputs": [],
      "stateMutability": "nonpayable",
      "type": "function"
    },
    {
      "inputs": [
        {
          "internalType": "uint256",
          "name": "tlId",
          "type": "uint256"
        }
      ],
      "name": "tierListExists",
      "outputs": [
        {
          "internalType": "bool",
          "name": "",
          "type": "bool"
        }
      ],
      "stateMutability": "view",
      "type": "function"
    },
    {
      "inputs": [
        {
          "internalType": "uint256",
          "name": "",
          "type": "uint256"
        }
      ],
      "name": "tierListInfos",
      "outputs": [
        {
          "internalType": "string",
          "name": "name",
          "type": "string"
        },
        {
          "internalType": "string",
          "name": "description",
          "type": "string"
        },
        {
          "internalType": "bool",
          "name": "active",
          "type": "bool"
        },
        {
          "internalType": "uint256",
          "name": "numActiveItems",
          "type": "uint256"
        }
      ],
      "stateMutability": "view",
      "type": "function"
    },
    {
      "inputs": [
        {
          "internalType": "uint256",
          "name": "",
          "type": "uint256"
        }
      ],
      "name": "tierListNextItemId",
      "outputs": [
        {
          "internalType": "uint256",
          "name": "",
          "type": "uint256"
        }
      ],
      "stateMutability": "view",
      "type": "function"
    },
    {
      "inputs": [
        {
          "internalType": "uint256",
          "name": "",
          "type": "uint256"
        },
        {
          "internalType": "uint256",
          "name": "",
          "type": "uint256"
        },
        {
          "internalType": "uint256",
          "name": "",
          "type": "uint256"
        }
      ],
      "name": "voteCounts",
      "outputs": [
        {
          "internalType": "uint256",
          "name": "",
          "type": "uint256"
        }
      ],
      "stateMutability": "view",
      "type": "function"
    }
  ],
  "bytecode": "0x60a060405260015f553480156012575f5ffd5b5033608052608051612ac761004b5f395f818161028c015281816103e001528181610b1701528181610c1f0152611c950152612ac75ff3fe608060405234801561000f575f5ffd5b506004361061013d575f3560e01c80638c0fefaa116100b4578063a60e482011610079578063a60e482014610327578063c7e82cce14610348578063d3c7e5721461035b578063d843f6791461036e578063e8abfd941461038e578063fc395bab146103ae575f5ffd5b80638c0fefaa146102685780638da5cb5b146102875780639110b300146102c65780639c145a6f146102e6578063a342a61914610306575f5ffd5b806357c0e9051161010557806357c0e905146101c45780635d58e7ef146101e75780635fbd65f61461020a578063648c9f401461023a578063758349cf14610242578063870fc34714610255575f5ffd5b8063286e728f146101415780632e7d31ec1461015c57806331e838dd146101715780633a908b74146101925780634a59a05f146101a5575b5f5ffd5b6101496103c1565b6040519081526020015b60405180910390f35b61016f61016a3660046120d7565b6103d5565b005b61018461017f366004612173565b6105b3565b6040516101539291906121c1565b61016f6101a03660046121e4565b610662565b6101496101b336600461222b565b60046020525f908152604090205481565b6101d76101d236600461222b565b6109b0565b6040519015158152602001610153565b6101fa6101f536600461222b565b6109d5565b6040516101539493929190612242565b61014961021836600461227a565b600860209081525f938452604080852082529284528284209052825290205481565b610149600581565b61016f6102503660046121e4565b610b0c565b61016f610263366004612173565b610c14565b61014961027636600461222b565b60026020525f908152604090205481565b6102ae7f000000000000000000000000000000000000000000000000000000000000000081565b6040516001600160a01b039091168152602001610153565b6102d96102d4366004612173565b610ec7565b60405161015391906122dd565b6102f96102f436600461230a565b61100e565b6040516101539190612323565b61031961031436600461222b565b6112a0565b60405161015392919061244f565b61033a61033536600461222b565b6114fd565b60405161015392919061247c565b6101fa61035636600461222b565b611787565b61014961036936600461222b565b611940565b61038161037c36600461227a565b611992565b6040516101539190612506565b6103a161039c366004612551565b611b2f565b604051610153919061258a565b61016f6103bc36600461259c565b611c8a565b5f60015f546103d091906125da565b905090565b336001600160a01b037f000000000000000000000000000000000000000000000000000000000000000016146104265760405162461bcd60e51b815260040161041d906125f3565b60405180910390fd5b8461046a5760405162461bcd60e51b81526020600482015260146024820152734e616d652063616e6e6f7420626520656d70747960601b604482015260640161041d565b5f8054818061047883612617565b909155506040805160a06020601f8b018190040282018101909252608081018981529293509182918a908a90819085018382808284375f92019190915250505090825250604080516020601f8901819004810282018101909252878152918101919088908890819084018382808284375f9201829052509385525050600160208085019190915260409384018390528583526003905250208151819061051e90826126be565b506020820151600182019061053390826126be565b5060408281015160028301805460ff19169115159190911790556060909201516003909101555181907f4f92d7b9fa6ecbd60f6a281340d7bdcc45d17a12143aa91df2cb6fe97b7e202890610591908a908a908a908a9089906127a0565b60405180910390a281156105aa576105aa818484611d67565b50505050505050565b600560209081525f92835260408084209091529082529020805481906105d890612643565b80601f016020809104026020016040519081016040528092919081815260200182805461060490612643565b801561064f5780601f106106265761010080835404028352916020019161064f565b820191905f5260205f20905b81548152906001019060200180831161063257829003601f168201915b5050506001909301549192505060ff1682565b5f83815260036020526040812080548592919061067e90612643565b90501161069d5760405162461bcd60e51b815260040161041d906127d9565b5f84815260036020526040902060020154849060ff166106cf5760405162461bcd60e51b815260040161041d90612810565b6005831461070f5760405162461bcd60e51b815260206004820152600d60248201526c496e76616c696420746965727360981b604482015260640161041d565b5f5b60058110156107f6575f86815260096020908152604080832033845282528083208484529091528120905b81548110156107c3575f8282815481106107585761075861283e565b5f9182526020808320909101548b835260058252604080842082855290925291206001015490915060ff16156107ba575f898152600860209081526040808320848452825280832087845290915281208054916107b483612852565b91905055505b5060010161073c565b505f878152600960209081526040808320338452825280832085845290915281206107ed9161201d565b50600101610711565b505f5b600581101561092357365f8686848181106108165761081661283e565b90506020028101906108289190612867565b90925090505f5b81811015610918575f83838381811061084a5761084a61283e565b5f8d8152600560209081526040808320938202959095013580835292905292909220600101549192505060ff166108b25760405162461bcd60e51b815260206004820152600c60248201526b125d195b481c995b5bdd995960a21b604482015260640161041d565b5f8a8152600960209081526040808320338452825280832088845282528083208054600181018255908452828420018490558c8352600882528083208484528252808320888452909152812080549161090a83612617565b90915550505060010161082f565b5050506001016107f9565b505f858152600160208181526040808420805480850182558186528386200180546001600160a01b031916339081179091558a865290546002845291909420819055908290528792917f81283654245b75acb05dccbecb44f8f0a9aa1a5a9578a0ab3b6b25d532faabb79161099891906125da565b60405190815260200160405180910390a35050505050565b5f81815260036020526040812080548291906109cb90612643565b9050119050919050565b60036020525f90815260409020805481906109ef90612643565b80601f0160208091040260200160405190810160405280929190818152602001828054610a1b90612643565b8015610a665780601f10610a3d57610100808354040283529160200191610a66565b820191905f5260205f20905b815481529060010190602001808311610a4957829003601f168201915b505050505090806001018054610a7b90612643565b80601f0160208091040260200160405190810160405280929190818152602001828054610aa790612643565b8015610af25780601f10610ac957610100808354040283529160200191610af2565b820191905f5260205f20905b815481529060010190602001808311610ad557829003601f168201915b505050506002830154600390930154919260ff1691905084565b336001600160a01b037f00000000000000000000000000000000000000000000000000000000000000001614610b545760405162461bcd60e51b815260040161041d906125f3565b5f838152600360205260408120805485929190610b7090612643565b905011610b8f5760405162461bcd60e51b815260040161041d906127d9565b5f84815260036020526040902060020154849060ff16610bc15760405162461bcd60e51b815260040161041d90612810565b82610c025760405162461bcd60e51b8152602060048201526011602482015270139bc81a5d195b5cc81c1c9bdd9a591959607a1b604482015260640161041d565b610c0d858585611d67565b5050505050565b336001600160a01b037f00000000000000000000000000000000000000000000000000000000000000001614610c5c5760405162461bcd60e51b815260040161041d906125f3565b5f828152600360205260408120805484929190610c7890612643565b905011610c975760405162461bcd60e51b815260040161041d906127d9565b5f83815260036020526040902060020154839060ff16610cc95760405162461bcd60e51b815260040161041d90612810565b5f8481526005602090815260408083208684529091529020600181015460ff16610d435760405162461bcd60e51b815260206004820152602560248201527f4974656d20616c72656164792072656d6f766564206f7220646f65736e277420604482015264195e1a5cdd60da1b606482015260840161041d565b5f85815260066020908152604080832087845290915281208054610d6690612643565b80601f0160208091040260200160405190810160405280929190818152602001828054610d9290612643565b8015610ddd5780601f10610db457610100808354040283529160200191610ddd565b820191905f5260205f20905b815481529060010190602001808311610dc057829003601f168201915b505050505090505f60075f8881526020019081526020015f2082604051610e0491906128ac565b90815260408051918290036020908101909220805493151560ff199485161790556001850180549093169092555f88815260039182905291822001805491610e4b83612852565b909155505f90505b6005811015610e85575f8781526008602090815260408083208984528252808320848452909152812055600101610e53565b5084867f1ddbdc1ca14e4f563a7f272d270c9db40f9a334afa98ef080fb2b321fa31f86f83604051610eb791906128c2565b60405180910390a3505050505050565b5f828152600360205260408120805460609285929091610ee690612643565b905011610f055760405162461bcd60e51b815260040161041d906127d9565b5f84815260056020908152604080832086845290915281208054610f2890612643565b905011610f6d5760405162461bcd60e51b8152602060048201526013602482015272125d195b48191bd95cc81b9bdd08195e1a5cdd606a1b604482015260640161041d565b60408051600580825260c08201909252906020820160a0803683375050505f85815260056020908152604080832087845290915290206001015490925060ff1615611007575f5b6005811015611005575f85815260086020908152604080832087845282528083208484529091529020548351849083908110610ff257610ff261283e565b6020908102919091010152600101610fb4565b505b5092915050565b60605f60015b5f5481101561105457838061103957505f8181526003602052604090206002015460ff165b1561104c578161104881612617565b9250505b600101611014565b505f816001600160401b0381111561106e5761106e61262f565b6040519080825280602002602001820160405280156110d057816020015b6110bd6040518060a001604052805f815260200160608152602001606081526020015f151581526020015f81525090565b81526020019060019003908161108c5790505b5090505f60015b5f54811080156110e657508382105b15611296575f81815260036020526040902086806111085750600281015460ff165b15611283576040518060a00160405280838152602001825f01805461112c90612643565b80601f016020809104026020016040519081016040528092919081815260200182805461115890612643565b80156111a35780601f1061117a576101008083540402835291602001916111a3565b820191905f5260205f20905b81548152906001019060200180831161118657829003601f168201915b505050505081526020018260010180546111bc90612643565b80601f01602080910402602001604051908101604052809291908181526020018280546111e890612643565b80156112335780601f1061120a57610100808354040283529160200191611233565b820191905f5260205f20905b81548152906001019060200180831161121657829003601f168201915b5050509183525050600283015460ff1615156020820152600383015460409091015284518590859081106112695761126961283e565b6020026020010181905250828061127f90612617565b9350505b508061128e81612617565b9150506110d7565b5090949350505050565b5f8181526003602052604081208054606092839285926112bf90612643565b9050116112de5760405162461bcd60e51b815260040161041d906127d9565b5f848152600460205260408120549060015b82811161133b575f87815260056020908152604080832084845290915290206001015460ff1615611329578161132581612617565b9250505b8061133381612617565b9150506112f0565b50806001600160401b038111156113545761135461262f565b60405190808252806020026020018201604052801561137d578160200160208202803683370190505b509450806001600160401b038111156113985761139861262f565b6040519080825280602002602001820160405280156113cb57816020015b60608152602001906001900390816113b65790505b5093505f60015b8381111580156113e157508282105b156114f3575f88815260056020908152604080832084845290915290206001015460ff16156114e1578087838151811061141d5761141d61283e565b602090810291909101015260408051600580825260c08201909252908160200160208202803683370190505086838151811061145b5761145b61283e565b60209081029190910101525f5b60058110156114d2575f898152600860209081526040808320858452825280832084845290915290205487518890859081106114a6576114a661283e565b602002602001015182815181106114bf576114bf61283e565b6020908102919091010152600101611468565b50816114dd81612617565b9250505b806114eb81612617565b9150506113d2565b5050505050915091565b5f81815260036020526040812080546060928392859261151c90612643565b90501161153b5760405162461bcd60e51b815260040161041d906127d9565b5f848152600460205260408120549060015b82811161159f575f8781526005602090815260408083208484529091528120805461157790612643565b9050111561158d578161158981612617565b9250505b8061159781612617565b91505061154d565b50806001600160401b038111156115b8576115b861262f565b6040519080825280602002602001820160405280156115e1578160200160208202803683370190505b509450806001600160401b038111156115fc576115fc61262f565b60405190808252806020026020018201604052801561164157816020015b60408051808201909152606081525f602082015281526020019060019003908161161a5790505b5093505f60015b83811115801561165757508282105b156114f3575f888152600560209081526040808320848452909152808220815180830190925280548290829061168c90612643565b80601f01602080910402602001604051908101604052809291908181526020018280546116b890612643565b80156117035780601f106116da57610100808354040283529160200191611703565b820191905f5260205f20905b8154815290600101906020018083116116e657829003601f168201915b50505091835250506001919091015460ff16151560209091015280515190915015611774578188848151811061173b5761173b61283e565b6020026020010181815250508087848151811061175a5761175a61283e565b6020026020010181905250828061177090612617565b9350505b508061177f81612617565b915050611648565b6060805f5f845f60035f8381526020019081526020015f205f0180546117ac90612643565b9050116117cb5760405162461bcd60e51b815260040161041d906127d9565b5f868152600360205260408082208151608081019092528054829082906117f190612643565b80601f016020809104026020016040519081016040528092919081815260200182805461181d90612643565b80156118685780601f1061183f57610100808354040283529160200191611868565b820191905f5260205f20905b81548152906001019060200180831161184b57829003601f168201915b5050505050815260200160018201805461188190612643565b80601f01602080910402602001604051908101604052809291908181526020018280546118ad90612643565b80156118f85780601f106118cf576101008083540402835291602001916118f8565b820191905f5260205f20905b8154815290600101906020018083116118db57829003601f168201915b5050509183525050600282015460ff16151560208083019190915260039092015460409182015282519183015190830151606090930151919a90995091975095509350505050565b5f81815260036020526040812080548391839161195c90612643565b90501161197b5760405162461bcd60e51b815260040161041d906127d9565b5f8381526001602052604090205491505b50919050565b5f8381526003602052604081208054606092869290916119b190612643565b9050116119d05760405162461bcd60e51b815260040161041d906127d9565b5f858152600160205260409020548015806119e9575084155b15611a22575f5b604051908082528060200260200182016040528015611a19578160200160208202803683370190505b50925050611b27565b808410611a2f575f6119f0565b5f611a3a85836125da565b9050805f818810611a4b5781611a4d565b875b9050806001600160401b03811115611a6757611a6761262f565b604051908082528060200260200182016040528015611a90578160200160208202803683370190505b5095505f5b81811015611b21575f8a8152600160208190526040909120908290611aba90876125da565b611ac491906125da565b81548110611ad457611ad461283e565b905f5260205f20015f9054906101000a90046001600160a01b0316878281518110611b0157611b0161283e565b6001600160a01b0390921660209283029190910190910152600101611a95565b50505050505b509392505050565b5f828152600360205260408120805460609285929091611b4e90612643565b905011611b6d5760405162461bcd60e51b815260040161041d906127d9565b60408051600580825260c0820190925290816020015b6060815260200190600190039081611b835790505091505f5b6005811015611005575f8581526009602090815260408083206001600160a01b03881684528252808320848452909152812080549091906001600160401b03811115611bea57611bea61262f565b604051908082528060200260200182016040528015611c13578160200160208202803683370190505b5090505f5b8254811015611c6157828181548110611c3357611c3361283e565b905f5260205f200154828281518110611c4e57611c4e61283e565b6020908102919091010152600101611c18565b5080858481518110611c7557611c7561283e565b60209081029190910101525050600101611b9c565b336001600160a01b037f00000000000000000000000000000000000000000000000000000000000000001614611cd25760405162461bcd60e51b815260040161041d906125f3565b5f828152600360205260408120805484929190611cee90612643565b905011611d0d5760405162461bcd60e51b815260040161041d906127d9565b5f83815260036020908152604091829020600201805460ff1916851515908117909155915191825284917fead89a9fcbfb2827ef30c3197e1da728ae3a8cd0ab1e029a378c5036dc059ddf910160405180910390a2505050565b5f816001600160401b03811115611d8057611d8061262f565b604051908082528060200260200182016040528015611da9578160200160208202803683370190505b5090505f5b82811015611fda57365f858584818110611dca57611dca61283e565b9050602002810190611ddc91906128d4565b909250905080611e1b5760405162461bcd60e51b815260206004820152600a602482015269456d707479206e616d6560b01b604482015260640161041d565b5f87815260076020526040908190209051611e399084908490612916565b9081526040519081900360200190205460ff1615611e8d5760405162461bcd60e51b815260206004820152601160248201527013985b5948185b1c9958591e481d5cd959607a1b604482015260640161041d565b5f87815260046020526040812080548290611ea790612617565b91829055506040805160606020601f87018190040282018101835291810185815292935091829186908690819085018382808284375f92018290525093855250506001602093840152508a81526005825260408082208583529092522081518190611f1290826126be565b50602091820151600191909101805460ff19169115159190911790555f89815260068252604080822084835290925220611f4d838583612925565b50600160075f8a81526020019081526020015f208484604051611f71929190612916565b9081526040805160209281900383019020805460ff1916931515939093179092555f8a815260039182905291822001805491611fac83612617565b919050555080858581518110611fc457611fc461283e565b6020908102919091010152505050600101611dae565b50837f0691ddd728f0a6c769526dc93a411704f65eced91fe9f5cd4a6281783456a74f82858560405161200f939291906129de565b60405180910390a250505050565b5080545f8255905f5260205f2090810190612038919061203b565b50565b5b8082111561204f575f815560010161203c565b5090565b5f5f83601f840112612063575f5ffd5b5081356001600160401b03811115612079575f5ffd5b602083019150836020828501011115612090575f5ffd5b9250929050565b5f5f83601f8401126120a7575f5ffd5b5081356001600160401b038111156120bd575f5ffd5b6020830191508360208260051b8501011115612090575f5ffd5b5f5f5f5f5f5f606087890312156120ec575f5ffd5b86356001600160401b03811115612101575f5ffd5b61210d89828a01612053565b90975095505060208701356001600160401b0381111561212b575f5ffd5b61213789828a01612053565b90955093505060408701356001600160401b03811115612155575f5ffd5b61216189828a01612097565b979a9699509497509295939492505050565b5f5f60408385031215612184575f5ffd5b50508035926020909101359150565b5f81518084528060208401602086015e5f602082860101526020601f19601f83011685010191505092915050565b604081525f6121d36040830185612193565b905082151560208301529392505050565b5f5f5f604084860312156121f6575f5ffd5b8335925060208401356001600160401b03811115612212575f5ffd5b61221e86828701612097565b9497909650939450505050565b5f6020828403121561223b575f5ffd5b5035919050565b608081525f6122546080830187612193565b82810360208401526122668187612193565b941515604084015250506060015292915050565b5f5f5f6060848603121561228c575f5ffd5b505081359360208301359350604090920135919050565b5f8151808452602084019350602083015f5b828110156122d35781518652602095860195909101906001016122b5565b5093949350505050565b602081525f6122ef60208301846122a3565b9392505050565b80358015158114612305575f5ffd5b919050565b5f6020828403121561231a575f5ffd5b6122ef826122f6565b5f602082016020835280845180835260408501915060408160051b8601019250602086015f5b828110156123c157603f19878603018452815180518652602081015160a0602088015261237960a0880182612193565b9050604082015187820360408901526123928282612193565b6060848101511515908a0152608093840151939098019290925250506020938401939190910190600101612349565b50929695505050505050565b5f82825180855260208501945060208160051b830101602085015f5b8381101561244357848303601f19018852815180518085526020918201918501905f5b8181101561242a57835183526020938401939092019160010161240c565b50506020998a01999094509290920191506001016123e9565b50909695505050505050565b604081525f61246160408301856122a3565b828103602084015261247381856123cd565b95945050505050565b604081525f61248e60408301856122a3565b828103602084015280845180835260208301915060208160051b840101602087015f5b838110156124f857601f1986840301855281518051604085526124d76040860182612193565b602092830151151595830195909552509485019491909101906001016124b1565b509098975050505050505050565b602080825282518282018190525f918401906040840190835b818110156125465783516001600160a01b031683526020938401939092019160010161251f565b509095945050505050565b5f5f60408385031215612562575f5ffd5b8235915060208301356001600160a01b038116811461257f575f5ffd5b809150509250929050565b602081525f6122ef60208301846123cd565b5f5f604083850312156125ad575f5ffd5b823591506125bd602084016122f6565b90509250929050565b634e487b7160e01b5f52601160045260245ffd5b818103818111156125ed576125ed6125c6565b92915050565b6020808252600a908201526927b7363c9037bbb732b960b11b604082015260600190565b5f60018201612628576126286125c6565b5060010190565b634e487b7160e01b5f52604160045260245ffd5b600181811c9082168061265757607f821691505b60208210810361198c57634e487b7160e01b5f52602260045260245ffd5b601f8211156126b957805f5260205f20601f840160051c8101602085101561269a5750805b601f840160051c820191505b81811015610c0d575f81556001016126a6565b505050565b81516001600160401b038111156126d7576126d761262f565b6126eb816126e58454612643565b84612675565b6020601f82116001811461271d575f83156127065750848201515b5f19600385901b1c1916600184901b178455610c0d565b5f84815260208120601f198516915b8281101561274c578785015182556020948501946001909201910161272c565b508482101561276957868401515f19600387901b60f8161c191681555b50505050600190811b01905550565b81835281816020850137505f828201602090810191909152601f909101601f19169091010190565b606081525f6127b3606083018789612778565b82810360208401526127c6818688612778565b9150508260408301529695505050505050565b60208082526017908201527f546965724c69737420646f6573206e6f74206578697374000000000000000000604082015260600190565b602080825260149082015273151a595c931a5cdd081a5cc8191a5cd8589b195960621b604082015260600190565b634e487b7160e01b5f52603260045260245ffd5b5f81612860576128606125c6565b505f190190565b5f5f8335601e1984360301811261287c575f5ffd5b8301803591506001600160401b03821115612895575f5ffd5b6020019150600581901b3603821315612090575f5ffd5b5f82518060208501845e5f920191825250919050565b602081525f6122ef6020830184612193565b5f5f8335601e198436030181126128e9575f5ffd5b8301803591506001600160401b03821115612902575f5ffd5b602001915036819003821315612090575f5ffd5b818382375f9101908152919050565b6001600160401b0383111561293c5761293c61262f565b6129508361294a8354612643565b83612675565b5f601f841160018114612981575f851561296a5750838201355b5f19600387901b1c1916600186901b178355610c0d565b5f83815260208120601f198716915b828110156129b05786850135825560209485019460019092019101612990565b50868210156129cc575f1960f88860031b161c19848701351681555b505060018560011b0183555050505050565b604081525f6129f060408301866122a3565b82810360208401528084825260208201905060208560051b830101865f601e19893603015b88821015612a8257858403601f190185528235818112612a33575f5ffd5b8a016020810190356001600160401b03811115612a4e575f5ffd5b803603821315612a5c575f5ffd5b612a67868284612778565b95505050602083019250602085019450600182019150612a15565b5091999850505050505050505056fea26469706673582212202ca21107eb386a0872ce3fe11b8c7c14d240ba2ca559b4193277be022cf7392a64736f6c634300081c0033",
  "linkReferences": {},
  "deployedLinkReferences": {},
  "immutableReferences": {
    "3": [
      {
        "length": 32,
        "start": 652
      },
      {
        "length": 32,
        "start": 992
      },
      {
        "length": 32,
        "start": 2839
      },
      {
        "length": 32,
        "start": 3103
      },
      {
        "length": 32,
        "start": 7317
      }
    ]
  },
  "inputSourceName": "project/contracts/TierList.sol",
  "buildInfoId": "solc-0_8_28-92f9bc9495d9201d00b375ef3082e5c9b7292ac2"
}